{"abi":[{"type":"function","name":"balances","inputs":[{"name":"","type":"address","internalType":"address"}],"outputs":[{"name":"","type":"uint256","internalType":"uint256"}],"stateMutability":"view"},{"type":"function","name":"deposit","inputs":[],"outputs":[],"stateMutability":"payable"},{"type":"function","name":"totalAssets","inputs":[],"outputs":[{"name":"","type":"uint256","internalType":"uint256"}],"stateMutability":"view"},{"type":"function","name":"withdraw","inputs":[],"outputs":[],"stateMutability":"nonpayable"}],"bytecode":{"object":"0x6080604052348015600e575f5ffd5b506105178061001c5f395ff3fe60806040526004361061003e575f3560e01c806301e1d1141461004257806327e235e31461006c5780633ccfd60b146100a8578063d0e30db0146100be575b5f5ffd5b34801561004d575f5ffd5b506100566100c8565b60405161006391906102be565b60405180910390f35b348015610077575f5ffd5b50610092600480360381019061008d9190610335565b6100cf565b60405161009f91906102be565b60405180910390f35b3480156100b3575f5ffd5b506100bc6100e3565b005b6100c6610252565b005b5f47905090565b5f602052805f5260405f205f915090505481565b5f5f5f3373ffffffffffffffffffffffffffffffffffffffff1673ffffffffffffffffffffffffffffffffffffffff1681526020019081526020015f205490505f8111610165576040517f08c379a000000000000000000000000000000000000000000000000000000000815260040161015c906103ba565b60405180910390fd5b5f3373ffffffffffffffffffffffffffffffffffffffff168260405161018a90610405565b5f6040518083038185875af1925050503d805f81146101c4576040519150601f19603f3d011682016040523d82523d5f602084013e6101c9565b606091505b505090508061020d576040517f08c379a000000000000000000000000000000000000000000000000000000000815260040161020490610463565b60405180910390fd5b5f5f5f3373ffffffffffffffffffffffffffffffffffffffff1673ffffffffffffffffffffffffffffffffffffffff1681526020019081526020015f20819055505050565b345f5f3373ffffffffffffffffffffffffffffffffffffffff1673ffffffffffffffffffffffffffffffffffffffff1681526020019081526020015f205f82825461029d91906104ae565b92505081905550565b5f819050919050565b6102b8816102a6565b82525050565b5f6020820190506102d15f8301846102af565b92915050565b5f5ffd5b5f73ffffffffffffffffffffffffffffffffffffffff82169050919050565b5f610304826102db565b9050919050565b610314816102fa565b811461031e575f5ffd5b50565b5f8135905061032f8161030b565b92915050565b5f6020828403121561034a576103496102d7565b5b5f61035784828501610321565b91505092915050565b5f82825260208201905092915050565b7f6e6f2062616c616e6365000000000000000000000000000000000000000000005f82015250565b5f6103a4600a83610360565b91506103af82610370565b602082019050919050565b5f6020820190508181035f8301526103d181610398565b9050919050565b5f81905092915050565b50565b5f6103f05f836103d8565b91506103fb826103e2565b5f82019050919050565b5f61040f826103e5565b9150819050919050565b7f7472616e73666572206661696c656400000000000000000000000000000000005f82015250565b5f61044d600f83610360565b915061045882610419565b602082019050919050565b5f6020820190508181035f83015261047a81610441565b9050919050565b7f4e487b71000000000000000000000000000000000000000000000000000000005f52601160045260245ffd5b5f6104b8826102a6565b91506104c3836102a6565b92508282019050808211156104db576104da610481565b5b9291505056fea26469706673582212201a822898f7ecfe17f22c2791f4dc1b9f87b96d36377d524c815f363ffbe773d064736f6c634300081c0033","linkReferences":{}},"methodIdentifiers":{"balances(address)":"27e235e3","deposit()":"d0e30db0","totalAssets()":"01e1d114","withdraw()":"3ccfd60b"},"id":19}